{
  "contractName": "IPFS",
  "abi": [
    {
      "anonymous": false,
      "inputs": [
        {
          "indexed": true,
          "internalType": "address",
          "name": "sender",
          "type": "address"
        },
        {
          "indexed": false,
          "internalType": "string",
          "name": "cid",
          "type": "string"
        },
        {
          "indexed": false,
          "internalType": "uint256",
          "name": "timestamp",
          "type": "uint256"
        }
      ],
      "name": "CIDStored",
      "type": "event"
    },
    {
      "inputs": [
        {
          "internalType": "uint256",
          "name": "",
          "type": "uint256"
        }
      ],
      "name": "records",
      "outputs": [
        {
          "internalType": "address",
          "name": "sender",
          "type": "address"
        },
        {
          "internalType": "string",
          "name": "cid",
          "type": "string"
        },
        {
          "internalType": "uint256",
          "name": "timestamp",
          "type": "uint256"
        }
      ],
      "stateMutability": "view",
      "type": "function",
      "constant": true
    },
    {
      "inputs": [
        {
          "internalType": "string",
          "name": "cid",
          "type": "string"
        }
      ],
      "name": "storeCID",
      "outputs": [],
      "stateMutability": "nonpayable",
      "type": "function"
    },
    {
      "inputs": [
        {
          "internalType": "uint256",
          "name": "index",
          "type": "uint256"
        }
      ],
      "name": "getCID",
      "outputs": [
        {
          "internalType": "address",
          "name": "sender",
          "type": "address"
        },
        {
          "internalType": "string",
          "name": "cid",
          "type": "string"
        },
        {
          "internalType": "uint256",
          "name": "timestamp",
          "type": "uint256"
        }
      ],
      "stateMutability": "view",
      "type": "function",
      "constant": true
    },
    {
      "inputs": [],
      "name": "getTotalCID",
      "outputs": [
        {
          "internalType": "uint256",
          "name": "",
          "type": "uint256"
        }
      ],
      "stateMutability": "view",
      "type": "function",
      "constant": true
    }
  ],
  "bytecode": "0x608060405234801561001057600080fd5b50610b8d806100206000396000f3fe608060405234801561001057600080fd5b506004361061004c5760003560e01c80633446106714610051578063913a2ffe146100835780639a237438146100b5578063ccfdd32b146100d3575b600080fd5b61006b600480360381019061006691906104ca565b6100ef565b60405161007a939291906105d7565b60405180910390f35b61009d600480360381019061009891906104ca565b6101d1565b6040516100ac939291906105d7565b60405180910390f35b6100bd61035c565b6040516100ca9190610615565b60405180910390f35b6100ed60048036038101906100e89190610765565b610368565b005b600081815481106100ff57600080fd5b90600052602060002090600302016000915090508060000160009054906101000a900473ffffffffffffffffffffffffffffffffffffffff1690806001018054610148906107dd565b80601f0160208091040260200160405190810160405280929190818152602001828054610174906107dd565b80156101c15780601f10610196576101008083540402835291602001916101c1565b820191906000526020600020905b8154815290600101906020018083116101a457829003601f168201915b5050505050908060020154905083565b6000606060008080549050841061021d576040517f08c379a00000000000000000000000000000000000000000000000000000000081526004016102149061085a565b60405180910390fd5b60008085815481106102325761023161087a565b5b90600052602060002090600302016040518060600160405290816000820160009054906101000a900473ffffffffffffffffffffffffffffffffffffffff1673ffffffffffffffffffffffffffffffffffffffff1673ffffffffffffffffffffffffffffffffffffffff1681526020016001820180546102b1906107dd565b80601f01602080910402602001604051908101604052809291908181526020018280546102dd906107dd565b801561032a5780601f106102ff5761010080835404028352916020019161032a565b820191906000526020600020905b81548152906001019060200180831161030d57829003601f168201915b505050505081526020016002820154815250509050806000015181602001518260400151935093509350509193909250565b60008080549050905090565b600060405180606001604052803373ffffffffffffffffffffffffffffffffffffffff16815260200183815260200142815250908060018154018082558091505060019003906000526020600020906003020160009091909190915060008201518160000160006101000a81548173ffffffffffffffffffffffffffffffffffffffff021916908373ffffffffffffffffffffffffffffffffffffffff16021790555060208201518160010190816104209190610a55565b506040820151816002015550503373ffffffffffffffffffffffffffffffffffffffff167f443da83b897b583510f678db69c58f2c50facbd83da918587978c64aefabb8bd8242604051610475929190610b27565b60405180910390a250565b6000604051905090565b600080fd5b600080fd5b6000819050919050565b6104a781610494565b81146104b257600080fd5b50565b6000813590506104c48161049e565b92915050565b6000602082840312156104e0576104df61048a565b5b60006104ee848285016104b5565b91505092915050565b600073ffffffffffffffffffffffffffffffffffffffff82169050919050565b6000610522826104f7565b9050919050565b61053281610517565b82525050565b600081519050919050565b600082825260208201905092915050565b60005b83811015610572578082015181840152602081019050610557565b60008484015250505050565b6000601f19601f8301169050919050565b600061059a82610538565b6105a48185610543565b93506105b4818560208601610554565b6105bd8161057e565b840191505092915050565b6105d181610494565b82525050565b60006060820190506105ec6000830186610529565b81810360208301526105fe818561058f565b905061060d60408301846105c8565b949350505050565b600060208201905061062a60008301846105c8565b92915050565b600080fd5b600080fd5b7f4e487b7100000000000000000000000000000000000000000000000000000000600052604160045260246000fd5b6106728261057e565b810181811067ffffffffffffffff821117156106915761069061063a565b5b80604052505050565b60006106a4610480565b90506106b08282610669565b919050565b600067ffffffffffffffff8211156106d0576106cf61063a565b5b6106d98261057e565b9050602081019050919050565b82818337600083830152505050565b6000610708610703846106b5565b61069a565b90508281526020810184848401111561072457610723610635565b5b61072f8482856106e6565b509392505050565b600082601f83011261074c5761074b610630565b5b813561075c8482602086016106f5565b91505092915050565b60006020828403121561077b5761077a61048a565b5b600082013567ffffffffffffffff8111156107995761079861048f565b5b6107a584828501610737565b91505092915050565b7f4e487b7100000000000000000000000000000000000000000000000000000000600052602260045260246000fd5b600060028204905060018216806107f557607f821691505b602082108103610808576108076107ae565b5b50919050565b7f496e646578206f7574206f6620626f756e647300000000000000000000000000600082015250565b6000610844601383610543565b915061084f8261080e565b602082019050919050565b6000602082019050818103600083015261087381610837565b9050919050565b7f4e487b7100000000000000000000000000000000000000000000000000000000600052603260045260246000fd5b60008190508160005260206000209050919050565b60006020601f8301049050919050565b600082821b905092915050565b60006008830261090b7fffffffffffffffffffffffffffffffffffffffffffffffffffffffffffffffff826108ce565b61091586836108ce565b95508019841693508086168417925050509392505050565b6000819050919050565b600061095261094d61094884610494565b61092d565b610494565b9050919050565b6000819050919050565b61096c83610937565b61098061097882610959565b8484546108db565b825550505050565b600090565b610995610988565b6109a0818484610963565b505050565b5b818110156109c4576109b960008261098d565b6001810190506109a6565b5050565b601f821115610a09576109da816108a9565b6109e3846108be565b810160208510156109f2578190505b610a066109fe856108be565b8301826109a5565b50505b505050565b600082821c905092915050565b6000610a2c60001984600802610a0e565b1980831691505092915050565b6000610a458383610a1b565b9150826002028217905092915050565b610a5e82610538565b67ffffffffffffffff811115610a7757610a7661063a565b5b610a8182546107dd565b610a8c8282856109c8565b600060209050601f831160018114610abf5760008415610aad578287015190505b610ab78582610a39565b865550610b1f565b601f198416610acd866108a9565b60005b82811015610af557848901518255600182019150602085019450602081019050610ad0565b86831015610b125784890151610b0e601f891682610a1b565b8355505b6001600288020188555050505b505050505050565b60006040820190508181036000830152610b41818561058f565b9050610b5060208301846105c8565b939250505056fea2646970667358221220ce56f94947371ddc1b5a6b0ac1f830e9b464d3f61b5b1b98f200bfb2f8d63ace64736f6c63430008130033",
  "immutableReferences": {},
  "source": "// SPDX-License-Identifier: MIT\npragma solidity ^0.8.19;\n\ncontract IPFS {\n    struct Record {\n        address sender;\n        string cid;\n        uint256 timestamp;\n    }\n\n    Record[] public records;\n\n    event CIDStored(address indexed sender, string cid, uint256 timestamp);\n\n    function storeCID(string memory cid) public {\n        records.push(Record(msg.sender, cid, block.timestamp));\n        emit CIDStored(msg.sender, cid, block.timestamp);\n    }\n\n    function getCID(uint index) public view returns (address sender, string memory cid, uint256 timestamp) {\n        require(index < records.length, \"Index out of bounds\");\n        Record memory r = records[index];\n        return (r.sender, r.cid, r.timestamp);\n    }\n\n    function getTotalCID() public view returns (uint) {\n        return records.length;\n    }\n}\n\n",
  "sourcePath": "/home/vboxuser/projek/IPFS/contracts/IPFS.sol",
  "compiler": {
    "name": "solc",
    "version": "0.8.19+commit.7dd6d404.Emscripten.clang"
  },
  "schemaVersion": "3.4.16",
  "updatedAt": "2025-06-22T23:10:48.019Z",
  "networkType": "ethereum",
  "devdoc": {
    "kind": "dev",
    "methods": {},
    "version": 1
  },
  "userdoc": {
    "kind": "user",
    "methods": {},
    "version": 1
  }
}