{
  "contractName": "SensorData",
  "abi": [
    {
      "anonymous": false,
      "inputs": [
        {
          "indexed": false,
          "internalType": "string",
          "name": "sensorId",
          "type": "string"
        },
        {
          "indexed": false,
          "internalType": "uint16",
          "name": "temperature",
          "type": "uint16"
        },
        {
          "indexed": false,
          "internalType": "uint16",
          "name": "humidity",
          "type": "uint16"
        },
        {
          "indexed": false,
          "internalType": "string",
          "name": "timestamp",
          "type": "string"
        },
        {
          "indexed": false,
          "internalType": "bytes32",
          "name": "dataHash",
          "type": "bytes32"
        }
      ],
      "name": "DataPublished",
      "type": "event"
    },
    {
      "inputs": [
        {
          "internalType": "string",
          "name": "sensorId",
          "type": "string"
        },
        {
          "internalType": "uint16",
          "name": "temperature",
          "type": "uint16"
        },
        {
          "internalType": "uint16",
          "name": "humidity",
          "type": "uint16"
        },
        {
          "internalType": "string",
          "name": "timestamp",
          "type": "string"
        },
        {
          "internalType": "bytes32",
          "name": "dataHash",
          "type": "bytes32"
        }
      ],
      "name": "publish",
      "outputs": [],
      "stateMutability": "nonpayable",
      "type": "function"
    },
    {
      "inputs": [
        {
          "internalType": "uint256",
          "name": "index",
          "type": "uint256"
        }
      ],
      "name": "getRecord",
      "outputs": [
        {
          "internalType": "string",
          "name": "sensorId",
          "type": "string"
        },
        {
          "internalType": "uint16",
          "name": "temperature",
          "type": "uint16"
        },
        {
          "internalType": "uint16",
          "name": "humidity",
          "type": "uint16"
        },
        {
          "internalType": "string",
          "name": "timestamp",
          "type": "string"
        },
        {
          "internalType": "bytes32",
          "name": "dataHash",
          "type": "bytes32"
        }
      ],
      "stateMutability": "view",
      "type": "function",
      "constant": true
    },
    {
      "inputs": [],
      "name": "getCount",
      "outputs": [
        {
          "internalType": "uint256",
          "name": "",
          "type": "uint256"
        }
      ],
      "stateMutability": "view",
      "type": "function",
      "constant": true
    }
  ],
  "bytecode": "0x608060405234801561001057600080fd5b50610b68806100206000396000f3fe608060405234801561001057600080fd5b50600436106100415760003560e01c806303e9e6091461004657806364dc2c111461007a578063a87d942c14610096575b600080fd5b610060600480360381019061005b91906103fb565b6100b4565b6040516100719594939291906104ee565b60405180910390f35b610094600480360381019061008f91906106dc565b610287565b005b61009e6103a5565b6040516100ab919061079e565b60405180910390f35b60606000806060600080805490508610610103576040517f08c379a00000000000000000000000000000000000000000000000000000000081526004016100fa90610805565b60405180910390fd5b600080878154811061011857610117610825565b5b90600052602060002090600402019050806000018160010160009054906101000a900461ffff168260010160029054906101000a900461ffff1683600201846003015484805461016790610883565b80601f016020809104026020016040519081016040528092919081815260200182805461019390610883565b80156101e05780601f106101b5576101008083540402835291602001916101e0565b820191906000526020600020905b8154815290600101906020018083116101c357829003601f168201915b505050505094508180546101f390610883565b80601f016020809104026020016040519081016040528092919081815260200182805461021f90610883565b801561026c5780601f106102415761010080835404028352916020019161026c565b820191906000526020600020905b81548152906001019060200180831161024f57829003601f168201915b50505050509150955095509550955095505091939590929450565b60006040518060a001604052808781526020018661ffff1681526020018561ffff16815260200184815260200183815250908060018154018082558091505060019003906000526020600020906004020160009091909190915060008201518160000190816102f69190610a60565b5060208201518160010160006101000a81548161ffff021916908361ffff16021790555060408201518160010160026101000a81548161ffff021916908361ffff16021790555060608201518160020190816103529190610a60565b506080820151816003015550507f6eb0565dcbe8aa0169af5bd5f4d41002bc8b3990be43b9649df2d48d330bc9c585858585856040516103969594939291906104ee565b60405180910390a15050505050565b60008080549050905090565b6000604051905090565b600080fd5b600080fd5b6000819050919050565b6103d8816103c5565b81146103e357600080fd5b50565b6000813590506103f5816103cf565b92915050565b600060208284031215610411576104106103bb565b5b600061041f848285016103e6565b91505092915050565b600081519050919050565b600082825260208201905092915050565b60005b83811015610462578082015181840152602081019050610447565b60008484015250505050565b6000601f19601f8301169050919050565b600061048a82610428565b6104948185610433565b93506104a4818560208601610444565b6104ad8161046e565b840191505092915050565b600061ffff82169050919050565b6104cf816104b8565b82525050565b6000819050919050565b6104e8816104d5565b82525050565b600060a0820190508181036000830152610508818861047f565b905061051760208301876104c6565b61052460408301866104c6565b8181036060830152610536818561047f565b905061054560808301846104df565b9695505050505050565b600080fd5b600080fd5b7f4e487b7100000000000000000000000000000000000000000000000000000000600052604160045260246000fd5b6105918261046e565b810181811067ffffffffffffffff821117156105b0576105af610559565b5b80604052505050565b60006105c36103b1565b90506105cf8282610588565b919050565b600067ffffffffffffffff8211156105ef576105ee610559565b5b6105f88261046e565b9050602081019050919050565b82818337600083830152505050565b6000610627610622846105d4565b6105b9565b90508281526020810184848401111561064357610642610554565b5b61064e848285610605565b509392505050565b600082601f83011261066b5761066a61054f565b5b813561067b848260208601610614565b91505092915050565b61068d816104b8565b811461069857600080fd5b50565b6000813590506106aa81610684565b92915050565b6106b9816104d5565b81146106c457600080fd5b50565b6000813590506106d6816106b0565b92915050565b600080600080600060a086880312156106f8576106f76103bb565b5b600086013567ffffffffffffffff811115610716576107156103c0565b5b61072288828901610656565b95505060206107338882890161069b565b94505060406107448882890161069b565b935050606086013567ffffffffffffffff811115610765576107646103c0565b5b61077188828901610656565b9250506080610782888289016106c7565b9150509295509295909350565b610798816103c5565b82525050565b60006020820190506107b3600083018461078f565b92915050565b7f496e76616c696420696e64657800000000000000000000000000000000000000600082015250565b60006107ef600d83610433565b91506107fa826107b9565b602082019050919050565b6000602082019050818103600083015261081e816107e2565b9050919050565b7f4e487b7100000000000000000000000000000000000000000000000000000000600052603260045260246000fd5b7f4e487b7100000000000000000000000000000000000000000000000000000000600052602260045260246000fd5b6000600282049050600182168061089b57607f821691505b6020821081036108ae576108ad610854565b5b50919050565b60008190508160005260206000209050919050565b60006020601f8301049050919050565b600082821b905092915050565b6000600883026109167fffffffffffffffffffffffffffffffffffffffffffffffffffffffffffffffff826108d9565b61092086836108d9565b95508019841693508086168417925050509392505050565b6000819050919050565b600061095d610958610953846103c5565b610938565b6103c5565b9050919050565b6000819050919050565b61097783610942565b61098b61098382610964565b8484546108e6565b825550505050565b600090565b6109a0610993565b6109ab81848461096e565b505050565b5b818110156109cf576109c4600082610998565b6001810190506109b1565b5050565b601f821115610a14576109e5816108b4565b6109ee846108c9565b810160208510156109fd578190505b610a11610a09856108c9565b8301826109b0565b50505b505050565b600082821c905092915050565b6000610a3760001984600802610a19565b1980831691505092915050565b6000610a508383610a26565b9150826002028217905092915050565b610a6982610428565b67ffffffffffffffff811115610a8257610a81610559565b5b610a8c8254610883565b610a978282856109d3565b600060209050601f831160018114610aca5760008415610ab8578287015190505b610ac28582610a44565b865550610b2a565b601f198416610ad8866108b4565b60005b82811015610b0057848901518255600182019150602085019450602081019050610adb565b86831015610b1d5784890151610b19601f891682610a26565b8355505b6001600288020188555050505b50505050505056fea26469706673582212206892cc5a6319a5eefb77c82ab039fa9a3b3e487ae4f5b2c45f8fec2f599866cb64736f6c63430008130033",
  "immutableReferences": {},
  "source": "// SPDX-License-Identifier: MIT\npragma solidity ^0.8.19;\n\ncontract SensorData {\n    struct Record {\n        string sensorId;\n        uint16 temperature;\n        uint16 humidity;\n        string timestamp;\n        bytes32 dataHash;\n    }\n\n    Record[] private records;\n\n    event DataPublished(\n        string sensorId,\n        uint16 temperature,\n        uint16 humidity,\n        string timestamp,\n        bytes32 dataHash\n    );\n\n    function publish(\n        string memory sensorId,\n        uint16 temperature,\n        uint16 humidity,\n        string memory timestamp,\n        bytes32 dataHash\n    ) public {\n        records.push(Record(sensorId, temperature, humidity, timestamp, dataHash));\n        emit DataPublished(sensorId, temperature, humidity, timestamp, dataHash);\n    }\n\n    function getRecord(uint index) public view returns (\n        string memory sensorId,\n        uint16 temperature,\n        uint16 humidity,\n        string memory timestamp,\n        bytes32 dataHash\n    ) {\n        require(index < records.length, \"Invalid index\");\n        Record storage rec = records[index];\n        return (\n            rec.sensorId,\n            rec.temperature,\n            rec.humidity,\n            rec.timestamp,\n            rec.dataHash\n        );\n    }\n\n    function getCount() public view returns (uint) {\n        return records.length;\n    }\n}\n\n",
  "sourcePath": "/home/vboxuser/projek/blockchain/contracts/SensorData.sol",
  "compiler": {
    "name": "solc",
    "version": "0.8.19+commit.7dd6d404.Emscripten.clang"
  },
  "schemaVersion": "3.4.16",
  "updatedAt": "2025-06-22T21:42:03.551Z",
  "networkType": "ethereum",
  "devdoc": {
    "kind": "dev",
    "methods": {},
    "version": 1
  },
  "userdoc": {
    "kind": "user",
    "methods": {},
    "version": 1
  }
}